:100000008031F6285534AA34803120007F08F6006C
:100010002100931CBF2820009318AB28BF28220082
:100020002F082E04031DB428F701F80104307802CC
:10003000031871287835A03E860001308700403FC4
:10004000F200413FF3007835203E86000130870002
:10005000403FF400413FF50073087502031D32284C
:100060007208740203183F287835203E860001305C
:1000700087000130810741310318810A69287835EA
:10008000203E860001308700403FF200413FF300F0
:100090007835A03E860001308700403FF400413FA4
:1000A000F50073087502031D5728720874020318BF
:1000B00065287835203E86000130870001308102B6
:1000C00041310030813B7F3169280130F2007208F4
:1000D000F7070130F2007208F80704307802031CB9
:1000E0001A28CF3025009A05220020082500980004
:1000F000CF30260093052200220826009100CF3041
:10010000250093052200240825009100CF30260009
:100110009A0522002608260098007708043A031D55
:100120009D2822003508AF01AF073408AE01AE07A5
:100130000230F2007208CC00B42822003308AF016C
:10014000AF073208AE01AE07B4282F082E04031DF6
:10015000B428CC01B42822004C08013A03190F2816
:10016000033A0319A528B4282F082E040319BC2824
:100170000130AE020030AF3B20009310F228210086
:10018000931DD6282000931DD628F0302200470268
:100190000318CF280130F2007208C707D328C7011F
:1001A0008A316022803120009311F2282000911EB4
:1001B000EE2823001908F20022004208F03EF30066
:1001C000F4012130F43D730886007408870072083A
:1001D00081000130F2007208C207F22827001308DC
:1001E000031D930176082000FF0009008031F828E4
:1001F0002200803102208031ED0080310320EE00AA
:1002000020008D31F22D91313A218131003A0319CC
:10021000962E9F314B2781312100E4006408220093
:10022000D10051083A3A031D932E883102208131C2
:10023000200026082100E40064082200DA005A08A1
:10024000FF3A031927295A084606031D962E8831BE
:1002500002208131200027082200D301D30720008B
:1002600026082200D201D2079631012681312000D2
:100270002F082200DC01DC0720002E082200DB0111
:10028000DB076C2E96310126813120002F082200D9
:10029000DE01DE0720002E082200DD01DD070A3026
:1002A00095310B25813110302100E40064082000D5
:1002B000C60022005C082000C801C80722005B08B5
:1002C0002000C701C70722005A0892318F228131CE
:1002D00022005E082000C501C50722005D0820003D
:1002E000C401C4079F3182278131FF3022005306A9
:1002F000031D7C29FF305206031DCD29D2295C083D
:100300002000C101C10722005B082000C001C00716
:10031000F030C2002230C30088318B2081312000B0
:1003200041082200D501D507200040082200D40151
:10033000D4075508540403198F2E540893315323BE
:1003400081312200D601D70155085702031DAA2981
:10035000540856020318C529F0302100E400223069
:10036000E500220056082100640786002200570895
:100370002100653D8700010893315323813101300D
:100380002200D6070030D73DA4290130DB0700301A
:10039000DC3D0130DD020030DE3B5E085D04031908
:1003A0008F2E7F2910302000C400EF30C5009F3110
:1003B000822781318F2E96317126813120002F08BE
:1003C0002200DE01DE0720002E082200DD01DD070D
:1003D00020302100E40064082000C60022005C08F0
:1003E0002000C801C80722005B082000C701C7071A
:1003F00022005A0892318F228131003022005E02A1
:10040000063003195D02031CE02AD801D90100302F
:100410005E02063003195D02031CC52AFF305C062C
:10042000031D142AFF305B0603196A2A5C082000AA
:10043000D601D60722005B082000D501D50722008F
:100440005808023E2100E40000302200593D2100FE
:10045000E500F030E6002230E7006408660720007F
:10046000D70021006508673D2000D8002200580809
:10047000013E2100E80000302200593D2100E90042
:10048000F030EA002230EB0068086A07860069084D
:100490006B3D87000108EC006C082000D900F030AB
:1004A0002100ED002230EE002200580821006D07E7
:1004B00086002200590821006E3D87000108EF00E8
:1004C0006F082000DA0086319A268131003803193E
:1004D000C52ABB2A22005808023E2100E400003051
:1004E0002200593D2100E500F030E6002230E7000F
:1004F00064086607E0006508673DE10022005808CF
:10050000013E2100E80000302200593D2100E900B1
:10051000F030EA002230EB0068086A0786006908BC
:100520006B3D87000108EC006C08E200F030ED0044
:100530002230EE002200580821006D0786002200BC
:10054000590821006E3D87000108EF006F08E300A5
:1005500092313422813100380319C52A9F31A027F6
:100560008131200021082200DC01DC072000200866
:100570002200DB01DB0706302200DD020030DE3B1B
:100580000630D8070030D93D072A22005E085D04F6
:10059000031DD72A59082000C501C50722005808A5
:1005A0002000C401C4079F31822781318F2E203063
:1005B0002000C400EF30C5009F31822781318F2E8B
:1005C00020302000C400EF30C5009F3182278131E8
:1005D0008F2E96310126813120002F082200DE0166
:1005E000DE0720002E082200DD01DD070A309531EC
:1005F0000B25813130302100E40064082000C60062
:1006000022005C082000C801C80722005B08200007
:10061000C701C70722005A0892318F228131220078
:100620005C082000BB01BB0722005B082000BA0168
:10063000BA078C312F2481310038031D822B220010
:100640005D085B072100E40022005E085C3D21009C
:10065000E5006408FF3E2000BA00FF302100653D40
:100660002000BB008C312F2481310038031D822BE8
:1006700022005C082000A501A50722005B082000DD
:10068000A401A407053090317E20813122005E084C
:100690002000A501A50722005D082000A401A407F1
:1006A000073090317E20813122005C08BD01BD07FA
:1006B0005B08BC01BC075D085B072100E400220069
:1006C0005E085C3D2100E5006408FF3E2200BA00A0
:1006D000FF302100653D2200BB005E082000C501FF
:1006E000C50722005D082000C401C4079F3182278E
:1006F000813122003D08AD01AD073C08AC01AC07DB
:10070000CA018F2E30302000C400EF30C5009F3169
:10071000822781318F2E96310126813120002F08CA
:100720002200DE01DE0720002E082200DD01DD07A9
:100730000A3095310B25813190302100E4006408A6
:100740002000C60022005C082000C801C807220063
:100750005B082000C701C70722005A0892318F2288
:1007600081312200CA01CA0A5B082100E400640842
:100770002000A00022005E082100E500650820009E
:10078000A10022005D082100E60066082000A2000A
:1007900022005C0888313420813122005E0820006C
:1007A000C501C50722005D082000C401C4079F31B0
:1007B000822781318F2E96310126813120002F082A
:1007C0002200DE01DE0720002E082200DD01DD0709
:1007D0000A3095310B25813140302100E400640856
:1007E0002000C60022005C082000C801C8072200C3
:1007F0005B082000C701C70722005A0892318F22E8
:10080000813122005C082000D601D60722005B0857
:100810002000D501D50722005E082000D801D807A6
:1008200022005D082000D701D7078C31C024813118
:10083000003A0319292C22005E082000C501C507D3
:1008400022005D082000C401C4079F318227813146
:100850008F2E40302000C400EF30C5009F3182272A
:1008600081318F2E96310126813120002F08220000
:10087000DE01DE0720002E082200DD01DD070A3040
:1008800095310B25813150302100E40064082000AF
:10089000C60022005C082000C801C80722005B08CF
:1008A0002000C701C70722005A0892318F228131E8
:1008B000A62C22005E085D040030031D013090313B
:1008C0005B208131C32C22005D0890313B208131B7
:1008D000C32C22005D0890314B208131C32C2200B3
:1008E0005E082000A901A90722005D082000A801D8
:1008F000A8079031E1208131C32C22005E0820003E
:10090000A501A50722005D082000A401A40722007C
:100910005B0890317E208131C32C22005D082100CC
:10092000E40064082000A00022005B089431B22497
:10093000813122005D082100E40064082200C60025
:10094000C32CFF30DB00FF30DC00C32C22005C082E
:10095000003A0319AC2CA12C5B08003A0319592C5E
:10096000013A0319632C033A0319692C013A03195C
:100970006F2C063A03197D2C023A03197D2C0E3A8E
:1009800003198D2CA12CFF3022005C06031DCA2CFC
:10099000FF305B06031DD52C50302000C400EF3023
:1009A000C5009F31822781318F2E22005E082000F2
:1009B000C501C50722005D082000C401C4079F319E
:1009C000822781318F2E0A3095310B25813160309D
:1009D0002100E40064082000C60022005C0820001A
:1009E000C801C80722005B082000C701C707220012
:1009F0005A0892318F228131FF3022005C06031D9C
:100A0000032DFF305B06031D092D9131CC2181316F
:100A10008F2E22005C082000C701C70722005B0858
:100A20002000C601C6078A31C92281318F2E963136
:100A30000126813120002F082200DE01DE07200080
:100A40002E082200DD01DD070A3095310B258131AA
:100A500070302100E40064082000C60022005C0819
:100A60002000C801C80722005B082000C701C70793
:100A700022005A0892318F228131FF3022005C0619
:100A8000031D442DFF305B06031D532D9F31AB2703
:100A90008131200021082200DE01DE07200020082D
:100AA0002200DD01DD079F31AB27813122005E0886
:100AB00020002102031D602D22005D08200020027D
:100AC000031C962D22005E082000C501C5072200E8
:100AD0005D082000C401C4079F31822781312200B4
:100AE000D601D7015E085702031D782D5D08560216
:100AF00003188F2E57082000AE01AE0722005608BB
:100B00002000AD01AD0794313524813120002E083D
:100B1000C501C5072D08C401C4079F318227813153
:100B200001302200D6070030D73D722D70302000F2
:100B3000C400EF30C5009F31822781318F2E96315E
:100B40007126813120002F082200DE01DE072000FF
:100B50002E082200DD01DD0780302100E40064085A
:100B60002000C60022005C082000C801C80722003F
:100B70005B082000C701C70722005A0892318F2264
:100B8000813122005C085B04031D5E2E5E0821009B
:100B9000E50022005D082100E400E536E40C0030A9
:100BA000650264300319640203185E2E22005E0899
:100BB0002000C501C50722005D082000C401C4074C
:100BC0009F318227813122005E08DC01DC075D084D
:100BD000DB01DB0700305E02023003195D02031CFB
:100BE0002D2E5D08013E2100E400003022005E3D14
:100BF0002100E500F030E6002230E70064086607D7
:100C000086006508673D87000108E800E901F030CB
:100C1000EA002230EB0022005D0821006A0786000E
:100C200022005E0821006B3D87000108EC00ED0109
:100C30006C08ED00EC0168086C042000A80021009D
:100C400069086D042000A900953197258131023093
:100C50002200DD020030DE3BEA2D5C085B04031954
:100C60008F2EAC01AD012D08BD01BD072C08BC01C4
:100C7000BC079F31AB27813122002C0820002007C0
:100C80002100E40022002D082000213D2100E50084
:100C90006408FF3E2200BA00FF302100653D2200BB
:100CA000BB00FF302000A400FF30A50005309031CC
:100CB0007E2081312200CB01CB0A8F2E8030200094
:100CC000C400EF30C5009F31822781318F2E0A305A
:100CD00095310B2581318F2E22005308003A0319DC
:100CE000722E672E5208103A03194229303A03191E
:100CF000DB29103A0319E92A703A0319DB2B103A61
:100D00000319322C303A0319E32C103A0319172D2A
:100D1000F03A03199F2D103A03198B2B672E9F3140
:100D200057278131962E0A3095310B252200C101BB
:100D3000C20108002200400803197E2F20005A0833
:100D4000DB005B08E1005908DB005B08E2005708A4
:100D50008600580887000108DB005B08E30057089D
:100D600086005808870041310108DB005B08E40079
:100D7000570886005808870042310108DB005B08ED
:100D8000E500570886005808870043310108DB005A
:100D90005B08E600FF30DB005B08E7000730E90096
:100DA0000030EA005608BB01BB075508BA01BA0774
:100DB0008C312F2486310038031D452F7A082000FE
:100DC000B701B7077908B601B60791310C21863112
:100DD00020003708EC01EC073608EB01EB07E830A0
:100DE000BA000330BB008C312F2486319F315B2742
:100DF000863120002008003EDB00FF30213DDC0072
:100E00002200370820005C02031D0A2F220036084A
:100E100020005B0203180E2F003008002200370864
:100E20002000B701B707220036082000B601B60738
:100E300091310C21863120003708E001E0073608A7
:100E4000DF01DF076C08CC01CC076B08CB01CB07B7
:100E50006B08063ECD0000306C3DCE006B09DB0018
:100E60006C09DC00DB0A0319DC0A5F085B07DD00A4
:100E700060085C3DDE005D08023ECF0000305E3D54
:100E8000D0008831E4208631692F22003708200005
:100E9000B701B707220036082000B601B607913126
:100EA0000C21863120003708EC01EC073608EB01F5
:100EB000EB076C086B040319612F0130EB0700305E
:100EC000EC3DFF30DB005B08E8000130E907003053
:100ED000EA3D20006C08BB01BB076B08BA01BA07EA
:100EE0006130BC000030BD006A08BF01BF0769085F
:100EF000BE01BE078E319426013008000030080084
:100F00002000A5002008860001308700403FA30094
:100F1000413FA400E92FA108031DF62F0A30A300CA
:100F20000030A4002508860087018101810AF62F80
:100F300024082304031DBC2F0230A20025088600CC
:100F4000870122088100F430A3000130A400F62FAD
:100F500024082304031DBC2F0830E22F2108013A86
:100F6000031DF62F0A30A3000030A4000630E22F44
:100F7000240823040319C12F0130A3020030A43B2D
:100F8000F62F2508860087018101F62F2108013AF6
:100F9000031DF62F0A30A3000030A4000730E22F13
:100FA000A108031DE12F240823040319E12F0130B8
:100FB000A3020030A43B24082304031DF62F0330B2
:100FC000E22F0430A2002508860087012208810054
:100FD000F62F2508860087010108840008300402E6
:100FE0000318F62F90310435003E82002008860059
:100FF000013087002308C03F2408C13F08000800D3
:101004002D30943187248831003A03192E282C304E
:10101400943187248831003A03192E2820002C08A3
:101024009331772388312000A800A9012D0893313A
:1010340077232000AA00AB01AA0EAB0EF030AB055B
:101044002A080F39AB04F030AA0528082A04A600A0
:1010540029082B04A7000800FF302000A600FF3059
:10106400A70008002000A5002200CC010D302000BC
:10107400A400FB30A300A30B3D28A40B3D28422869
:1010840020002508A300A40123082200A0002000BA
:1010940024082200A100CF3025009A05200025084D
:1010A4002500980020002008A300A40123082200A2
:1010B400A200200024082200A300CF3026009305BC
:1010C400200020082600910020002108A300A4018C
:1010D40023082200A400200024082200A500CF3009
:1010E40025009305200021082500910020002208F6
:1010F400A300A40123082200A60020002408220043
:10110400A700CF3026009A05200022082600980068
:10111400080020004108BB01BB074008BA01BA0718
:101124008C312F2488310038031DE0287A082000F0
:10113400CC01CC077908CB01CB074C08B701B70722
:101144004B08B601B60791310C21883120003708CD
:10115400C801C8073608C701C707C901CA0148083A
:101164004C02031DB72847084B020318D9284C0822
:10117400B501B5074B08B401B4079F31782788310E
:101184002000C40049084207C5004A08433DC60080
:101194004508860046088700440881000130CB07D3
:1011A4000030CC3D0130C9070030CA3DB1284A089F
:1011B400C101C1074908C001C00708002000C001DF
:1011C400C101080020004B09D1004C09D200D10A0A
:1011D4000319D20A4D085107D3004E08523DD400DA
:1011E4004E084C02031DF8284D084B02031825290C
:1011F40050085402031D00294F08530203182529DF
:101204004E08C501C5074D08C401C40753084D075E
:10121400C60054084E3DC7005309D1005409D200FA
:10122400D10A0319D20A4F085107C8005008523D89
:10123400C9008931FB21883120005408D001D0072E
:101244005308CF01CF0750084F04031908004C0876
:10125400C501C5074B08C401C4074E08C701C70729
:101264004D08C601C6075008C901C9074F08C8017F
:10127400C8078931FB2108002000C00022004C0867
:10128400031D080020004008BE00BF013E082300E3
:10129400A00020003F082300A10020003908BE0060
:1012A400BF013E082300A20020003F082300A30042
:1012B40020003A08BE00BF013E082300A40020001D
:1012C4003F082300A50020003B08BE00BF013E08E4
:1012D4002300A60020003F082300A70020003D08AB
:1012E400BE00BF013E08A0003F08A1000A30A200D2
:1012F4000030A30092315222200021082200B501BF
:10130400B507200020082200B401B40720003C08DF
:10131400BE00BF013E082200B20020003F082200A8
:10132400B3003308AF01AF073208AE01AE07CC01FA
:10133400CC0A08002200A001A101A201A301A4017A
:10134400A501A601A70101309E0023008C018D0197
:101354008E0121008C160C158E160E17250013080D
:10136400F0390C389300CF3093059101FC309E0581
:101374001A08F0390C389A00CF309A059801F330E6
:101384009E0526001308F0390C389300CF309305DE
:101394009101CF3025009E0526001A08F0390C383B
:1013A4009A00CF309A0598013F3025009E05FF3002
:1013B40020009B0091101C08FC3902389C001C156D
:1013C40021008C120C118E120E134D302800960041
:1013D40020009310033028009704210093140B1766
:1013E400280017158B172200AE01AF01C701CC01ED
:1013F4000800003020004902413003194802031C50
:10140400352A20004508BA01BA074408B901B907CA
:10141400A030CA004A08BB004030BC000030BD0008
:1014240090319120893140302000C4070030C53DFF
:101434004708BB01BB074608BA01BA07A030BC0085
:101444000030BD004030BE000030BF008E31942615
:10145400893140302000C6070030C73D4030C80203
:101464000030C93BFB294908480403190800450812
:10147400BA01BA074408B901B907A030CA004A083A
:10148400BB004908BD01BD074808BC01BC07903139
:101494009120893120004708BB01BB074608BA01E7
:1014A400BA07A030BC000030BD004908BF01BF0727
:1014B4004808BE01BE078E3194260800BA2A2000CF
:1014C4000C1E08000230F0007008FB0022004908DE
:1014D400F000F1017008BE007108BF003F083E042F
:1014E400031908000130BE020030BF3B0800003081
:1014F40022003F02023003193E02031C862A0130F7
:10150400BE020030BF3B08003108BF01BF073008EE
:10151400BE01BE070430F0007008FB000800003074
:1015240022003F02023003193E02031C9D2A0130AF
:10153400BE020030BF3B20000C1A08000330F0004C
:101544007008FB0022004808F000F1017008BE009A
:101554007108BF00080022003F083E040319B72A9F
:101564000130BE020030BF3B0800FB01FB0A08004B
:101574007B08013A0319612A033A0319792A013ACB
:101584000319AD2A073A0319912AC82A08004B30D7
:101594002000C8004808A0004D30C9004908A10037
:1015A4004E30CA004A08A2004F309331E8238A31F2
:1015B400152B20004F0893315323080020004E08B8
:1015C40093315323080020004D089331532308001E
:1015D40020004C08C501C5074B08C401C4079F314E
:1015E4008227080020004608933130238A312000E6
:1015F4002508C501C5072408C401C4079F318227F3
:101604000800220046089331532308009231AE2289
:101614008A3120004108C501C5074008C401C40738
:101624009F318227080020004708003A03191B2B2A
:10163400352B4608003A0319DB2A013A0319E02A3C
:10164400033A0319E52A013A0319EA2A063A031967
:10165400F42A023A0319F42A0E3A0319032B033A23
:101664000319082B352B0800220062082000BB0157
:10167400BB07220061082000BA01BA078C312F246D
:101684008B31003A03194C2B9431DE248B31953184
:10169400CC250800013090316C208B312200E3000E
:1016A40063082000B900023090316C208B31220095
:1016B400E40064082000BA00033090316C208B31C0
:1016C4002200E50065082000BB009F318C278B3188
:1016D4002200E60066082000BC009F3196278B316B
:1016E4002200E70067082000BD00003090316C2024
:1016F4008B3189313E218B319531CC258B31003AA8
:1017040003198C2B2000A001A101A2010030883113
:101714003420080000309631E9268B312200E300A2
:101724006308E8009F31A0278B3122006208200063
:101734002106031DA12B2200610820002006031DA1
:1017440008002200E808031908004C2B05309331E7
:1017540030238B31200025082200AD01AD07200085
:1017640024082200AC01AC07CB01FF302D06031D79
:10177400BD2BFF302C06031DCE2BCB01CB0AAC01B5
:10178400AD019F31AB278B3120002108C701C7076A
:101794002008C601C607132C9231AE228B312000DB
:1017A4004108C701C7074008C601C607073093317F
:1017B40030238B31200025082200BD01BD07200005
:1017C40024082200BC01BC072000470822003D0277
:1017D400031DF02B2000460822003C020318FB2BBB
:1017E4003D082000C701C70722003C082000C601AD
:1017F400C60722002D082000BB01BB0722002C08CD
:101804002000BA01BA078C312F248B310038031D14
:10181400102C22003D083C04031D132C2200AC01B3
:10182400AD0122002D08BD01BD072C08BC01BC0779
:101834002000460822002C072000C400470822008C
:101844002D3D2000C5004408FF3E2200BA00FF30B1
:101854002000453D2200BB0008002000BE01BF015E
:101864000030B4000030B5009F3178278C31FF3A46
:10187400031D432C2200B601B701B801B90102309F
:1018840008002000BC01BD013B083D02031D4C2C97
:101894003A083C020318AE2C3F08B701B7073E08CC
:1018A400B601B60791310C218C3120003708BF01F5
:1018B400BF073608BE01BE073E08013EB400003033
:1018C4003F3DB5009F3178278C31FF3A031DA42C8E
:1018D40020003D082200B901B90720003C0822007D
:1018E400B801B80720003F082200B701B70720005D
:1018F4003E082200B601B60720003D083C04031D43
:10190400852C013008000130BE020030BF3B3F0887
:10191400B501B5073E08B401B4079F3178278C316F
:10192400FF3A0319982C06302000862C20003E082C
:10193400013E2200B600003020003F3D2200B700E7
:101944000130080001302000BE070030BF3D0130E7
:10195400BC070030BD3D462C3B082200AB01AB0761
:1019640020003A082200AA01AA0720003F08FA0131
:10197400FA073E08F901F90700300800200056086C
:101984005802031DC72C55085702031C542D22006E
:1019940040080319542D20005608BB01BB07550805
:1019A400BA01BA078C312F248C310038031D532D12
:1019B4007A082000DE01DE077908DD01DD0758081A
:1019C400BB01BB075708BA01BA078C312F248C31ED
:1019D4000038031D442D7A082000B701B7077908A1
:1019E400B601B60791310C218C3120003708E20191
:1019F400E2073608E101E107E830BA000330BB0032
:101A04008C312F248C31220037082000B701B7070E
:101A1400220036082000B601B60791310C218C3122
:101A240020003708E001E0073608DF01DF0760081F
:101A34006202031D1F2D5F0861020318442D610813
:101A4400013ECB000030623DCC005E08CE01CE07E3
:101A54005D08CD01CD076109D9006209DA00D90A10
:101A64000319DA0A5F085907DB0060085A3DDC00F5
:101A74005B08013ECF0000305C3DD0008831E4209B
:101A84000130080020005E08B601B6075D08B50104
:101A9400B507FF30D9005908B7009131B32101309F
:101AA40008002200003008002200620861040319C3
:101AB4008A2D2000B901FF302200E30063082000D2
:101AC400BA00BB01BC0105302200E4006408200018
:101AD400BD00003089313E218D319531CC258D31C9
:101AE4002000B901BA01BB01BC0114302200E3009B
:101AF40063082000BD00003089313E218D319531CD
:101B0400CC258D3101302200E1020030E23B562D1C
:101B14002000B901BA01BB01BC0105302200E30079
:101B240063082000BD00FF3089313E218D3195319D
:101B3400CC258D312000B901BA01FF302200E30029
:101B440063082000BB00BC0105302200E4006408E7
:101B54002000BD00003089313E218D319531CC25E6
:101B64008D31FF302200E30063082000B900BA0180
:101B7400BB01BC0105302200E40064082000BD0064
:101B8400003089313E218D319531CC258D312000B5
:101B9400B901FF302200E30063082000BA00BB0152
:101BA400BC0105302200E40064082000BD000030C0
:101BB40089313E218D319531CC258D312000B901FB
:101BC400BA01BB01BC0105302200E3006308200018
:101BD400BD00003089313E218D319531CC2508007E
:101BE400210019088739683899000330990499133A
:101BF4009F31D8278D319F3151278D3194310E2457
:101C04008D3189319C218D319031F6208D31963181
:101C140039268D319731B1278D312200CA018B319C
:101C2400A8238D3102302200E1000030E2008D3122
:101C340056258D319131FF218D31003A0319662EDD
:101C44002200CA08031D712E4B080319472E2D08C4
:101C54002000AE01AE0722002C082000AD01AD0724
:101C6400943135248D3120002E082300A901A907C1
:101C740020002D082300A801A80729082200E2015A
:101C8400E2072300280822004C2E22002D08E2013E
:101C9400E2072C08E101E1078B3136238D31220064
:101CA4003B082D02031D582E3A082C0203185F2E00
:101CB4000130AC070030AD3D742E3D08AD01AD07D9
:101CC4003C08AC01AC07742E2000B901BA01BB0179
:101CD400BC01BC0ABD01003089313E218D319531F2
:101CE400CC258D3102309031B9208D31003A031961
:101CF400852E0230923119228D31953167258D312F
:101D04008F3138278D3102309031CD208D31003A1A
:101D140003191C2E0230923119228D319631AB26D3
:101D24008D311C2E3F3020003A05C20000303B05A7
:101D3400C300430842040319E22E4209C0004309C8
:101D4400C100C00A0319C10A4008403EC200003065
:101D5400413DC30043083F02031DB22E42083E0228
:101D64000318BA2E3F08C301C3073E08C201C207C5
:101D74003A08AE003B08AF00B001B1013D08B30121
:101D8400B3073C08B201B2074308B501B5074208DE
:101D9400B401B407973128278E3108302000C100E0
:101DA400C930C000C00BD42EC10BD42ED92E2000B4
:101DB4004208BE024308BF3B4208BA074308BB3D82
:101DC40000303F02403003193E02031C142F3A082E
:101DD400AE003B08AF00B001B10142083C07B200BD
:101DE40043083D3DB3004030B4000030B5009731A6
:101DF40028278E3108302000C100C930C000C00B34
:101E0400012FC10B012F062F40302000BE020030ED
:101E1400BF3B4030BA070030BB3D4030C207003002
:101E2400C33DE22E3F083E04031908003A08AE0001
:101E34003B08AF00B001B10142083C07B2004308BF
:101E44003D3DB3003F08B501B5073E08B401B407F2
:101E5400973128278E3108302000C100C930C000D6
:101E6400C00B322FC10B322F372F08002200EB0199
:101E7400EC012000A001A101A2010030883134202E
:101E84008F3122006C082000BB01BB0722006B08C5
:101E94002000BA01BA078C312F248F3105309331D9
:101EA40030238F31200025082200EA01EA072000B0
:101EB40024082200E901E907FF306A06031D642FA4
:101EC400FF306906031D682FE901EA0122006C084E
:101ED400E201E2076B08E101E1078B3136238F3120
:101EE40001309031B9208F31003A0319A72F200017
:101EF400A001A101A2010030883134208F310130CA
:101F0400923119228F3101302200EB070030EC3D71
:101F14009231AE228F312000410822006C02031D51
:101F2400972F2000400822006B02031C9B2FEB011B
:101F3400EC016C082000BB01BB0722006B082000E9
:101F4400BA01BA078C312F248F3102309031B92075
:101F54008F31003A0319D12F2000A001A101A20161
:101F64000030883134208F310230923119228F3180
:101F740022006C082000A901A90722006B08200098
:101F8400A801A807953197258F31003A0319CE2F60
:101F9400953167258F31D12F9431DE248F31023072
:101FA4009031CD208F31003A0319682F02309231DD
:101FB40019228F319F31AB278F3120002108200453
:101FC4000319E92FFF30A400FF30A500F32F2200EE
:101FD4006A082000A501A507220069082000A401C1
:101FE400A407053090317E208F31953167258F31DC
:101FF400953167258F318B31A823080087318B2FCA
:102004008731982F8731D02F8731F62F8731AE2F24
:0C2014008731C62F8731A82F8731B82FE5
:1020220021000D160D1722000D120D132000A00124
:1020320000308731FF2708002200410842060319B9
:102042001D284108C10AF03E860087012130873DE4
:10205200010808009231702290312000A300230869
:10206200A40021000D129F31E42721000D1620004B
:10207200240808002000A5002508A4002408220046
:10208200C80020002508A4002408A00001309431D3
:10209200B22408002000A5002508A400240822007C
:1020A200C90020002508A4002408A00002309431B1
:1020B200B22408002000A500250803196328FB01AB
:1020C200FB0A6428FB017B08A4002408A00000305E
:1020D2009431B22408002000B80038087907B6000D
:1020E2007A0803187A0AB7003608023EB4000030B4
:1020F200373DB5009F31782708002000A70025084A
:10210200A6002608A00027089431B22490312000AE
:102112002408A6002608A000270A9431B224080049
:1021220020003908AE003A08AF00B001B1013B0807
:10213200BE003E08B2003D08B401B4073C08B3013A
:10214200B3079731692708002000B0003008A800C3
:102152009830A90030089331C22390312000210821
:10216200AB01AB072008AA01AA079531392508005F
:102172002000A000201CC3287C08083A031DC328A5
:1021820001300800A01CCB287D08083A031DCB288B
:1021920001300800003008002000A000201CD728D1
:1021A2007C08033A031DD72801300800A01CDF2851
:1021B2007D08033A031DDF280130080000300800C3
:1021C200200029082200B101B107200028082200BE
:1021D200B001B00720002908A501A5072808A4011D
:1021E200A407033090317E20080021000E15240040
:1021F2000E1521000C1424000C1421009513FC016F
:10220200FD010A302200CD000030CE000A30CF009E
:102212000030D000080020003708B501B5073608A5
:10222200B401B4079F31782791312000B8003808F3
:10223200B9003908FF3A031908000630B607003022
:10224200B73D0D299F31F2279131A1309F316F2780
:1022520091312000A4002408A6009231702291310D
:102262002000A4002408A5009F31B62720002608DC
:102272000800220043080319482907302000A10062
:102282007D30A000A00B4329A10B4329220022008C
:102292000E100E12C301410842060030031D013028
:1022A20008002000A3002200C30803190E140E1612
:1022B20007302000A2007D30A100A10B5E29A20BF5
:1022C2005E292200C301C30A200023089F31672729
:1022D20008002000A200A101A10A22089031B92021
:1022E20091310038031D7F29200022089031CD2032
:1022F20091310038031D7F292000A101200021080F
:10230200080000302000B5000030B600FF30BA00EF
:102312003A08B7009131B321913101302000B50064
:102322000030B600FF30BA003A08B7009131B3214D
:10233200080020003108A7003008A6002F08A500D9
:102342002E08A400A03094315E249131200032087E
:102352009F316F2791312000B3003308B4009F31C1
:10236200B627080020003508AE003608AF00B001DD
:10237200B1013708B8003808B20091319A21913181
:1023820008302000B900C930B800B80BC629B90B13
:10239200C629CB2908002000D001D101003051020A
:1023A2000B3003195002031808005108C701C70770
:1023B2005008C601C6078A31C92291310130200076
:1023C200D0070030D13DCF294D302000A60026088D
:1023D200A00000300C180130A1007C30873180272A
:1023E20091314F302000A6002608A00000300E19BF
:1023F2000130A1007D30873180270800FB08031DD2
:10240200042A013008002000A0017B08043A0319C5
:102412000E2A7B08033A031D162A22003F083E04B7
:102422000319162A2000A001A00A20002008080093
:102432002000A100211C272A7C08033A031D262A1A
:102442000530A0002008FC00272AFC01A11C08007E
:102452007D08033A031D322A0530A0002008FD0042
:102462000800FD010800E8302000D5000330D60046
:10247200210061082000D801D8072100600820004F
:10248200D701D707210062082000ED006D08D900AE
:10249200210063082000EE006E08DA0086319A26D9
:1024A20008002000A401A501201C5B2A2208A40721
:1024B2002308A53D0130A235A30D890B5C2A01300A
:1024C200A136A00C890B612A21082004031D552A7C
:1024D2002508A101A1072408A001A00708000830CF
:1024E2002000A0000030A100A201FF302000A007C0
:1024F200FF30A13DFF302106031D812AFF30200657
:1025020003198D2A0310A20D21000D1720000D1AA8
:10251200221421000D13762A220808002000CA0086
:102522003A3091315221923120004A08933153239B
:1025320092312000460893315323923120004808FB
:10254200C501C5074708C401C4079F31822720007F
:102552004808C9004908C60008002000C201C3019A
:10256200E830BA000330BB008C312F249231023A9A
:102572000319C52A22003808013E2000C20000309B
:102582002200393D2000C30020004308C101C107D9
:102592004208C001C007080020003108A700300827
:1025A200A6002F08A5002E08A400A03094315E24B6
:1025B20092319F31F2279231A1309F316F279231B0
:1025C2009231702292312000B2003208B3009F3162
:1025D200B6272000330808002000A300F12A2000BB
:1025E200640023009518F02A20002308A000A1010E
:1025F20020082300910020002108230092003F3090
:102602002000A200220823009505151403101518B6
:1026120003140030093D1308080021000E120E10A9
:1026220007302000A1007D30A000A00B162BA10BCB
:10263200162B22000E100E12C30121008D168D13CF
:10264200003023009C0019309B0090309D00243004
:102652009E002200C101C201210091160800200043
:10266200AA002A089231ED2293312000A600A70188
:102672002608AB002708AC002A0A9231ED2220007E
:10268200A600A7012B08A900A80126082804AB0070
:1026920027082904AC002C08A501A5072B08A401D2
:1026A200A40708002000B4003408B0000430B0369B
:1026B200890B582B30089F31CC2793312000B10071
:1026C2003108B20034080F399F31CC2793312000F2
:1026D200B0003008B3003230A8000030A900023048
:1026E200AA000030AB009531392508002000A00077
:1026F20041302002031C842B473020020318842B14
:102702002008C93E080061302002031C8F2B67306D
:10271200200203188F2B2008A93E08003030200227
:10272200031C9A2B3A30200203189A2B2008D03E21
:102732000800003008002000A0000830A10000308E
:10274200A200FF302000A107FF30A23DFF30220689
:10275200031DAD2BFF3021060319BD2BA01FB42B87
:1027620021000D16B62B21000D120D1703102000AB
:10277200A00D21000D13A22BA101A20121000D1613
:1027820008002000A6002608A2002208A7002708A9
:1027920098310A00933100380319D42B0130A2007A
:1027A2002208A707C82B2608A2009830A300A20976
:1027B200A309A20A0319A30A2708A4009830A500B6
:1027C20022082407A0002308253DA10008002000BC
:1027D200A4000030FB08031D0130A300240886007A
:1027E200870123088100220049082000A300210854
:1027F20086008701230881002008860087012200C5
:102802003008C03F3108C13F48082000A300220819
:102812008600870123088100080010302000AD00E7
:102822002D08AF002F08933130239431FF30200060
:102832002506031D1E2CFF3024060319252C023009
:10284200AD002D08AF07132C2F08F03EAD00FF306E
:1028520003180030AE002E0D2E0C2200A90020001D
:102862002D0C2200A800080020002E08B0002D0820
:10287200AF00AF35B00D2F08103EB1000030303D33
:10288200B2002200290820002E02031D4C2C220037
:10289200280820002D020318592C310893313023C7
:1028A20020002508AE01AE072408AD01AD070800DF
:1028B200FF30AD00FF30AE0008002000AD00A001E7
:1028C20001308731FF2794319F31F2279431200064
:1028D2002D089F316F27943120002408A800250875
:1028E200A9002608AA002708AB000830AC00AB37C5
:1028F200AA0CA90CA80CAC0B782C28089F316F27C6
:102902009431200024089F316F2708002000A30083
:10291200F430A4000130A500250824040319B02CCA
:1029220091313A219431003A0319A22C9F314B275D
:102932002000A200230886008701220881000130BE
:102942000800F9302000A2000000A20BA52CA92C3F
:10295200000001302000A4020030A53B8D2C003085
:1029620008002000A30023009518B42C200023089F
:10297200A100A201210823009100200022082300C7
:10298200920020002008230093003F302000A10085
:10299200210823009505200003108B1B03148B13C1
:1029A2002300151555309600AA309600951415117E
:1029B2002000031C08008B1708002000A001A101C1
:1029C200A201FF308831342094310B302000A8005E
:1029D2002630A7006630A600A60BED2CA70BED2C27
:1029E200A80BED2CF42C2000A001A101A2010030C3
:1029F20088313420943102302000A8004530A700ED
:102A0200A930A600A60B032DA70B032DA80B032D9F
:102A12000A2D08002000A300F430A4000130A50014
:102A2200A601250824040319080026082306031911
:102A3200080091313A219531003A03192B2D9F312B
:102A42004B2795312000A2002208A600F430A400F2
:102A52000130A500F9302000A2000000A20B2E2DAB
:102A6200322D000001302000A4020030A53B122DBF
:102A72002000AE01AF012200C30803190E140E1686
:102A820007302000AD007D30AC00AC0B462DAD0B05
:102A9200462D2200C301C30A20002B082A04031971
:102AA2000800200028082E07840029082F3D8500F1
:102AB20000089F316727953101302000AE070030B2
:102AC200AF3D0130AA020030AB3B4D2D2000A001EA
:102AD200FF30A6002608A100A20100308831342070
:102AE200953103302000A8008A30A7005630A60096
:102AF200A60B792DA70B792DA80B792D802D2000FF
:102B0200A001A101A20100308831342095310230A8
:102B12002000A8004530A700A930A600A60B8F2DE3
:102B2200A70B8F2DA80B8F2D962D080022002908A8
:102B32002000AB00220028082000AA00AA35AB0D15
:102B42002A08103EAC0000302B3DAD0000302200C0
:102B520029026430031928020318CA2D200029080B
:102B6200A501A5072808A401A4072C0890317E20FE
:102B72009531FF302000A400FF30A5002C08023E52
:102B820090317E2001302200A8070030A93D01309B
:102B92000800003008009131E52195312200DF0163
:102BA200E001003060020A3003195F020318F02DC1
:102BB200813103219531F9302000EF000000EF0B45
:102BC200DF2DE32D000001302200DF070030E03D61
:102BD200003060020A3003195F02031CD92D033052
:102BE20091316A219531003A0319F92D013008001B
:102BF2009F31612795310038031DCC2D003008002C
:102C020088310220963120002708B301B307260835
:102C1200B201B207FF303306031D112EFF30320618
:102C2200031D182EFF30AE00FF30AF0008008831C0
:102C32000220963120002708B501B5072608B40105
:102C4200B407FF303506031D282EFF303406031D5E
:102C52002F2EFF30AE00FF30AF0008003208B10067
:102C6200B00134083004AE0035083104AF0008006A
:102C720021000C16F33028009D0020009311033030
:102C820028009E0478309E042100931528001E150A
:102C920000309231ED2296312000AD002D08FB006C
:102CA20001309231ED2296312000AD002D08220034
:102CB200C80002309231ED2296312000AD002D087D
:102CC2002200C9000330933130232000250822005E
:102CD200B101B107200024082200B001B0070800AA
:102CE2002000B701B801922E0130380200300319DA
:102CF20037020318A42E3508B000F030B10022309C
:102D0200B20037083107B3003808323DB400330847
:102D1200860034088700300881000130B707003090
:102D2200B83D88310220963120002708B601B60747
:102D32002608B501B507FF303606031DA22EFF3067
:102D42003506031D752E3708FE3EAE00FF30383DB6
:102D5200AF0008009F31612796310038031DAB2E6A
:102D62002000A001A101A201003088313420963157
:102D720041302000AF00EE30AE00AE0BBE2EAF0BE6
:102D8200BE2E000021000D160D170C148C14240009
:102D92000C148C142700121421008D1624008D1699
:102DA200210093109311220097018B1563000000FC
:102DB2008B119F31D827963189319C2196319031E0
:102DC200F6209631963139269631953167250800DD
:102DD2002000C0007908063EB40000307A3DB500FC
:102DE2009F3178279631FF3A0319FC2E0630F907F6
:102DF2000030FA3D262F2000400803190E2F220032
:102E02002B082000BB01BB0722002A082000BA01C0
:102E1200BA078C312F249631262F7908073E2000DD
:102E2200B40000307A3DB5009F3178279631FF3AE1
:102E3200031D1D2F003008000730F9070030FA3D4E
:102E420001302200AA070030AB3D0130080020000B
:102E52003108A7003008A6002F08A5002E08A400FC
:102E6200A03094315E2497312000B801B9013408B2
:102E7200FF3EB600FF30353DB70037083902031D6B
:102E8200442F360838020318562F380832078600B6
:102E92003908333D870001089F316F279731013090
:102EA2002000B8070030B93D382F3408FF3EB60085
:102EB200FF30353DB7003608320786003708333D0C
:102EC200870001089F316F2797319F31B62708008D
:102ED20020003108A7003008A6002F08A5002E0800
:102EE200A400A03094315E2497319F31F2279731AC
:102EF200A1309F316F2797312000B701B801330805
:102F0200FF3EB500FF30343DB60036083802031DDF
:102F12008C2F350837020318A02F90312B209731C0
:102F22002000B50037083207B60036088600870150
:102F3200350881000130B7070030B83D802F92314B
:102F4200702297312000B5003308FF3E3207B600E9
:102F5200360886008701350881009F31B6270800B0
:102F62009F31512797312200AA01AB01F901FA01E1
:102F7200C0019F3154279731003A031908009F314D
:102F82005B27973120002008FE3EC700FF30213D1D
:102F9200C8002200C001C00A20004808BA01BA07CE
:102FA2004708B901B9074530C4004408BB000230E4
:102FB200BC000030BD0090319120973120004508BF
:102FC20022006D06031DEB2F2000460822006E062C
:102FD2000319080091318221973120004808BB0172
:102FE200BB074708BA01BA076D30BC000130BD000B
:102FF2000230BE000030BF008E319426080000343B
:0A300200303430340D340A34003449
:103E960090311D2008009031112008009F314E27D7
:103EA60008009F31C127080001309031A520080085
:103EB60000302000A0008030A10008000030220061
:103EC600CC08031D013008002000A000111E692F38
:103ED600200823009A0008002000A300230893313D
:103EE6009C239F319F31E427080020003408AE0050
:103EF6003508AF00B001B1019231CD220800200093
:103F06004508933153239F312000440893315323AE
:103F160008007A082000B501B5077908B401B4078E
:103F26009F31782708007908013E2000B400003050
:103F36007A3DB5009F317827080022002B08200023
:103F4600A101A10722002A082000A001A00708005D
:103F5600220029082000A101A1072200280820002C
:103F6600A001A007080021000D12000021000D1776
:103F7600BC2FBD2F000021000D1608009131232112
:103F86009F31003A0319C92F0130080091312321CE
:103F960008002000A0000A3020020318D52F2008B0
:103FA600303E08002008373E080093310E239F312B
:103FB60009309231ED222000A40024082200C60018
:103FC600080021000D17003020000D1E0130A00052
:103FD6002008A10021000D1320002108080021005F
:103FE6000D160D17F62FF72F000021000D12FB2FCF
:0A3FF600FC2F000021000D1308004D
:020000040001F9
:04000E00E4FFFFDE2E
:10E00000010005000500010068000000000000009C
:10E010003D00FF00FF00FF00FF00FF00FF00FF00CA
:10E02000FF00FF00FF00FF00FF00FF00FF00FF00F8
:00000001FF
